:100000000C942A000C94F9020C9499030C94C703E5
:100010000C9447000C9447000C9447000C945E032A
:100020000C9447000C9447000C9447000C94470034
:100030000C9447000C9447000C9447000C94470024
:100040000C9447000C9447000C9447000C94470014
:100050000C94470011241FBECFE5D8E0DEBFCDBF12
:1000600010E0A0E6B0E0E8E2F8E002C005900D92F2
:10007000A238B107D9F720E0A2E8B0E001C01D9294
:10008000A438B207E1F70E94BE020C9412040C944B
:1000900000008FE084BB80EF85BB0895E0E06EC078
:1000A000E13099F028F0E230E9F0E33041F133C07B
:1000B00085B38E7F85BB85B3826085BB85B3846045
:1000C00085BB85B3886085BB26C085B3816085BB51
:1000D00085B38D7F85BB85B3846085BB85B3886020
:1000E00085BB19C085B3816085BB85B3826085BB44
:1000F00085B38B7F85BB85B3886085BB0CC085B31A
:10010000816085BB85B3826085BB85B3846085BB18
:1001100085B3877F85BB9C9909C0F0E0EE0FFF1F78
:10012000EE0FFF1FE05AFF4F808108959D9909C08F
:10013000F0E0EE0FFF1FEE0FFF1FEF59FF4F808122
:1001400008959E9909C0F0E0EE0FFF1FEE0FFF1F0C
:10015000EE59FF4F808108959F9909C0F0E0EE0F9E
:10016000FF1FEE0FFF1FED59FF4F808108958FE9AC
:100170009FE00197F1F700C00000EF5FE43008F462
:100180008FCF80E008959BB39B7F9BBB84FF04C00F
:100190009BB390619BBB03C09BB39F7E9BBB85FFC2
:1001A00004C09BB390629BBB03C09BB39F7D9BBB72
:1001B00086FF04C09BB390649BBB03C09BB39F7B33
:1001C0009BBB882324F49BB390689BBB03C09BB369
:1001D0009F779BBB9BB398609BBBEFE9FFE0319798
:1001E000F1F700C000009BB3977F9BBBEFE9FFE0F6
:1001F0003197F1F700C0000080FF04C09BB390610D
:100200009BBB03C09BB39F7E9BBB81FF04C09BB382
:1002100090629BBB03C09BB39F7D9BBB82FF04C0CE
:100220009BB390649BBB03C09BB39F7B9BBB83FF33
:1002300004C08BB380688BBB03C08BB38F778BBB41
:100240008BB388608BBB8FE99FE00197F1F700C00B
:1002500000008BB3877F8BBBEFE9FFE03197F1F7AD
:1002600000C0000008958AB38C6F8ABB83E00E94AF
:10027000C3008FE79EE30197F1F700C0000083E021
:100280000E94C3008FE79EE30197F1F700C00000D2
:1002900083E00E94C3008FE79EE30197F1F700C05F
:1002A000000082E00E94C30088E20E94C30088E050
:1002B0000E94C30081E00E94C30086E00E94C30048
:1002C0008CE00E94C3009FEF29EF80E09150204016
:1002D0008040E1F700C0000008959BB394609BBB91
:1002E00084FF04C09BB390619BBB03C09BB39F7E04
:1002F0009BBB85FF04C09BB390629BBB03C09BB3B9
:100300009F7D9BBB86FF04C09BB390649BBB03C0D7
:100310009BB39F7B9BBB882324F49BB390689BBBC0
:1003200003C09BB39F779BBB9BB398609BBBEFE9DC
:10033000FFE03197F1F700C000009BB3977F9BBBB4
:10034000EFE9FFE03197F1F700C0000080FF04C043
:100350009BB390619BBB03C09BB39F7E9BBB81FF04
:1003600004C09BB390629BBB03C09BB39F7D9BBBB0
:1003700082FF04C09BB390649BBB03C09BB39F7B75
:100380009BBB83FF04C08BB380688BBB03C08BB364
:100390008F778BBB8BB388608BBB8FE99FE0019716
:1003A000F1F700C000008BB3877F8BBBEFE9FFE064
:1003B0003197F1F700C0000008951F93CF93DF93AA
:1003C00000D000D01F92CDB7DEB7AC01892BA9F5C4
:1003D00080E3840F0E946D0144C09A01ADECBCEC37
:1003E0000E9403049695879596958795969587958F
:1003F0009C01220F331F880F991F880F991F880FA8
:10040000991F820F931F9A01281B390BC901E1E044
:10041000F0E0EC0FFD1FE10FF11D17FDFA95805D77
:1004200080839A010E940304AC0156954795569526
:100430004795569547951F5F01C010E0411551053E
:1004400061F611500CC0E1E0F0E0EC0FFD1FE10F90
:10045000F11D17FDFA9580810E946D0111501F3F1B
:1004600091F70F900F900F900F900F90DF91CF9119
:100470001F9108950F931F93CF938C01C0E003C089
:100480000E946D01CF5FF801EC0FF11D8081811199
:10049000F7CFCF911F910F91089584E80E94C30078
:1004A000809183008A3048F480E30E946D0180913E
:1004B000830090E00E94DD0103C090E00E94DD0116
:1004C0008AE30E946D01809182008A3048F480E3C3
:1004D0000E946D018091820090E00E94DD010895EC
:1004E00090E00E94DD010895CF93C0E028C00E94F3
:1004F0004E008823E1F30E944E008D3311F180916C
:100500008300880F982F990F990F890F809383008C
:100510000E944E0090E0C09790918300890F8093D5
:1005200083000E944E008111FCCF2FEF80E792E004
:10053000215080409040E1F700C00000CF5FC23002
:10054000B0F20E944D02CF91089581B38B7F81BBA1
:1005500081B3877F81BB87B38B7F87BB85B7816082
:1005600085BF85B7826085BF8BB780628BBF8BB735
:1005700080648BBF8BB780688BBF08950E94A502F3
:1005800010928300109282000E9433010E94490061
:10059000789487B38E7F87BB87B3806287BB87B32E
:1005A000806487BB87B3806887BB81E00E94C300FB
:1005B0000E9474028091830081110AC080918200A0
:1005C000811106C081E00E94C3000E947402F2CF34
:1005D0000E944D02EFCF89E09DE30E94EC0388B3B7
:1005E000806288BB88B3806488BB88B3806888BB1E
:1005F00008951F920F920FB60F9211242F933F93DD
:100600004F935F936F937F938F939F93AF93BF931A
:10061000EF93FF9380918300882339F0B09B05C04E
:10062000B29903C00E94EB0216C081E00E94C30091
:1006300083E80E94C30080E790E00E943A022FEF17
:1006400081EE94E0215080409040E1F700C000002E
:1006500081E00E94C300FF91EF91BF91AF919F9104
:100660008F917F916F915F914F913F912F910F905B
:100670000FBE0F901F9018950E94000481E00E9409
:10068000C30082E80E94C30088E790E00E943A021B
:1006900088B38F7D88BB88B38F7B88BB88B38F7707
:1006A00088BB2FEF81EE94E0215080409040E1F72D
:1006B00000C0000081E00E94C30008951F920F92C5
:1006C0000FB60F9211242F933F934F935F936F9325
:1006D0007F938F939F93AF93BF93EF93FF938091FB
:1006E0008200811107C090918300911103C00E9484
:1006F0003C030EC0811109C080918300815080931A
:1007000083008BE38093820003C08150809382003A
:10071000FF91EF91BF91AF919F918F917F916F91D9
:100720005F914F913F912F910F900FBE0F901F90AF
:1007300018951F920F920FB60F9211242F933F938B
:100740004F935F936F937F938F939F93AF93BF93D9
:10075000EF93FF931092830010928200C69B03C018
:100760000E943C0303C081E00E94C300FF91EF910F
:10077000BF91AF919F918F917F916F915F914F91B9
:100780003F912F910F900FBE0F901F9018951F92C1
:100790000F920FB60F9211242F933F934F935F93B5
:1007A0006F937F938F939F93AF93BF93EF93FF9339
:1007B000C6990E943C03FF91EF91BF91AF919F9129
:1007C0008F917F916F915F914F913F912F910F90FA
:1007D0000FBE0F901F9018951DBC1CBC9BBD8ABD01
:1007E00089B7806189BF8FB588608FBD8EB58860FD
:1007F0008EBD8EB581608EBD8EB584608EBD089530
:100800001EBC19BE0895A29FB001B39FC001A39F53
:10081000700D811D1124911DB29F700D811D112439
:08082000911D0895F894FFCF2B
:100828003738392F3435362A3132332D63303D2B62
:100838005741524E494E470046494E495348454450
:020848000000AE
:00000001FF
